{"abi":[{"type":"constructor","inputs":[{"name":"_proofMaturityDelaySeconds","type":"uint256","internalType":"uint256"}],"stateMutability":"nonpayable"},{"type":"receive","stateMutability":"payable"},{"type":"function","name":"anchorStateRegistry","inputs":[],"outputs":[{"name":"","type":"address","internalType":"contract IAnchorStateRegistry"}],"stateMutability":"view"},{"type":"function","name":"checkWithdrawal","inputs":[{"name":"_withdrawalHash","type":"bytes32","internalType":"bytes32"},{"name":"_proofSubmitter","type":"address","internalType":"address"}],"outputs":[],"stateMutability":"view"},{"type":"function","name":"depositTransaction","inputs":[{"name":"_to","type":"address","internalType":"address"},{"name":"_value","type":"uint256","internalType":"uint256"},{"name":"_gasLimit","type":"uint64","internalType":"uint64"},{"name":"_isCreation","type":"bool","internalType":"bool"},{"name":"_data","type":"bytes","internalType":"bytes"}],"outputs":[],"stateMutability":"payable"},{"type":"function","name":"disputeGameBlacklist","inputs":[{"name":"_disputeGame","type":"address","internalType":"contract IDisputeGame"}],"outputs":[{"name":"","type":"bool","internalType":"bool"}],"stateMutability":"view"},{"type":"function","name":"disputeGameFactory","inputs":[],"outputs":[{"name":"","type":"address","internalType":"contract IDisputeGameFactory"}],"stateMutability":"view"},{"type":"function","name":"disputeGameFinalityDelaySeconds","inputs":[],"outputs":[{"name":"","type":"uint256","internalType":"uint256"}],"stateMutability":"view"},{"type":"function","name":"donateETH","inputs":[],"outputs":[],"stateMutability":"payable"},{"type":"function","name":"ethLockbox","inputs":[],"outputs":[{"name":"","type":"address","internalType":"contract IETHLockbox"}],"stateMutability":"view"},{"type":"function","name":"finalizeWithdrawalTransaction","inputs":[{"name":"_tx","type":"tuple","internalType":"struct Types.WithdrawalTransaction","components":[{"name":"nonce","type":"uint256","internalType":"uint256"},{"name":"sender","type":"address","internalType":"address"},{"name":"target","type":"address","internalType":"address"},{"name":"value","type":"uint256","internalType":"uint256"},{"name":"gasLimit","type":"uint256","internalType":"uint256"},{"name":"data","type":"bytes","internalType":"bytes"}]}],"outputs":[],"stateMutability":"nonpayable"},{"type":"function","name":"finalizeWithdrawalTransactionExternalProof","inputs":[{"name":"_tx","type":"tuple","internalType":"struct Types.WithdrawalTransaction","components":[{"name":"nonce","type":"uint256","internalType":"uint256"},{"name":"sender","type":"address","internalType":"address"},{"name":"target","type":"address","internalType":"address"},{"name":"value","type":"uint256","internalType":"uint256"},{"name":"gasLimit","type":"uint256","internalType":"uint256"},{"name":"data","type":"bytes","internalType":"bytes"}]},{"name":"_proofSubmitter","type":"address","internalType":"address"}],"outputs":[],"stateMutability":"nonpayable"},{"type":"function","name":"finalizedWithdrawals","inputs":[{"name":"","type":"bytes32","internalType":"bytes32"}],"outputs":[{"name":"","type":"bool","internalType":"bool"}],"stateMutability":"view"},{"type":"function","name":"guardian","inputs":[],"outputs":[{"name":"","type":"address","internalType":"address"}],"stateMutability":"view"},{"type":"function","name":"initVersion","inputs":[],"outputs":[{"name":"","type":"uint8","internalType":"uint8"}],"stateMutability":"view"},{"type":"function","name":"initialize","inputs":[{"name":"_systemConfig","type":"address","internalType":"contract ISystemConfig"},{"name":"_anchorStateRegistry","type":"address","internalType":"contract IAnchorStateRegistry"}],"outputs":[],"stateMutability":"nonpayable"},{"type":"function","name":"l2Sender","inputs":[],"outputs":[{"name":"","type":"address","internalType":"address"}],"stateMutability":"view"},{"type":"function","name":"minimumGasLimit","inputs":[{"name":"_byteCount","type":"uint64","internalType":"uint64"}],"outputs":[{"name":"","type":"uint64","internalType":"uint64"}],"stateMutability":"pure"},{"type":"function","name":"mintTransaction","inputs":[{"name":"_to","type":"address","internalType":"address"},{"name":"_value","type":"uint256","internalType":"uint256"}],"outputs":[],"stateMutability":"nonpayable"},{"type":"function","name":"numProofSubmitters","inputs":[{"name":"_withdrawalHash","type":"bytes32","internalType":"bytes32"}],"outputs":[{"name":"","type":"uint256","internalType":"uint256"}],"stateMutability":"view"},{"type":"function","name":"params","inputs":[],"outputs":[{"name":"prevBaseFee","type":"uint128","internalType":"uint128"},{"name":"prevBoughtGas","type":"uint64","internalType":"uint64"},{"name":"prevBlockNum","type":"uint64","internalType":"uint64"}],"stateMutability":"view"},{"type":"function","name":"paused","inputs":[],"outputs":[{"name":"","type":"bool","internalType":"bool"}],"stateMutability":"view"},{"type":"function","name":"proofMaturityDelaySeconds","inputs":[],"outputs":[{"name":"","type":"uint256","internalType":"uint256"}],"stateMutability":"view"},{"type":"function","name":"proofSubmitters","inputs":[{"name":"","type":"bytes32","internalType":"bytes32"},{"name":"","type":"uint256","internalType":"uint256"}],"outputs":[{"name":"","type":"address","internalType":"address"}],"stateMutability":"view"},{"type":"function","name":"proveWithdrawalTransaction","inputs":[{"name":"_tx","type":"tuple","internalType":"struct Types.WithdrawalTransaction","components":[{"name":"nonce","type":"uint256","internalType":"uint256"},{"name":"sender","type":"address","internalType":"address"},{"name":"target","type":"address","internalType":"address"},{"name":"value","type":"uint256","internalType":"uint256"},{"name":"gasLimit","type":"uint256","internalType":"uint256"},{"name":"data","type":"bytes","internalType":"bytes"}]},{"name":"_disputeGameIndex","type":"uint256","internalType":"uint256"},{"name":"_outputRootProof","type":"tuple","internalType":"struct Types.OutputRootProof","components":[{"name":"version","type":"bytes32","internalType":"bytes32"},{"name":"stateRoot","type":"bytes32","internalType":"bytes32"},{"name":"messagePasserStorageRoot","type":"bytes32","internalType":"bytes32"},{"name":"latestBlockhash","type":"bytes32","internalType":"bytes32"}]},{"name":"_withdrawalProof","type":"bytes[]","internalType":"bytes[]"}],"outputs":[],"stateMutability":"nonpayable"},{"type":"function","name":"provenWithdrawals","inputs":[{"name":"","type":"bytes32","internalType":"bytes32"},{"name":"","type":"address","internalType":"address"}],"outputs":[{"name":"disputeGameProxy","type":"address","internalType":"contract IDisputeGame"},{"name":"timestamp","type":"uint64","internalType":"uint64"}],"stateMutability":"view"},{"type":"function","name":"proxyAdmin","inputs":[],"outputs":[{"name":"","type":"address","internalType":"contract IProxyAdmin"}],"stateMutability":"view"},{"type":"function","name":"proxyAdminOwner","inputs":[],"outputs":[{"name":"","type":"address","internalType":"address"}],"stateMutability":"view"},{"type":"function","name":"respectedGameType","inputs":[],"outputs":[{"name":"","type":"uint32","internalType":"GameType"}],"stateMutability":"view"},{"type":"function","name":"respectedGameTypeUpdatedAt","inputs":[],"outputs":[{"name":"","type":"uint64","internalType":"uint64"}],"stateMutability":"view"},{"type":"function","name":"setMinter","inputs":[{"name":"_minter","type":"address","internalType":"address"}],"outputs":[],"stateMutability":"nonpayable"},{"type":"function","name":"setNativeDeposit","inputs":[{"name":"_disable","type":"bool","internalType":"bool"}],"outputs":[],"stateMutability":"nonpayable"},{"type":"function","name":"superchainConfig","inputs":[],"outputs":[{"name":"","type":"address","internalType":"contract ISuperchainConfig"}],"stateMutability":"view"},{"type":"function","name":"systemConfig","inputs":[],"outputs":[{"name":"","type":"address","internalType":"contract ISystemConfig"}],"stateMutability":"view"},{"type":"function","name":"upgrade","inputs":[{"name":"_anchorStateRegistry","type":"address","internalType":"contract IAnchorStateRegistry"}],"outputs":[],"stateMutability":"nonpayable"},{"type":"function","name":"version","inputs":[],"outputs":[{"name":"","type":"string","internalType":"string"}],"stateMutability":"pure"},{"type":"event","name":"Initialized","inputs":[{"name":"version","type":"uint8","indexed":false,"internalType":"uint8"}],"anonymous":false},{"type":"event","name":"MinterSet","inputs":[{"name":"minter","type":"address","indexed":true,"internalType":"address"}],"anonymous":false},{"type":"event","name":"NativeDepositDisabled","inputs":[],"anonymous":false},{"type":"event","name":"NativeDepositEnabled","inputs":[],"anonymous":false},{"type":"event","name":"TransactionDeposited","inputs":[{"name":"from","type":"address","indexed":true,"internalType":"address"},{"name":"to","type":"address","indexed":true,"internalType":"address"},{"name":"version","type":"uint256","indexed":true,"internalType":"uint256"},{"name":"opaqueData","type":"bytes","indexed":false,"internalType":"bytes"}],"anonymous":false},{"type":"event","name":"WithdrawalFinalized","inputs":[{"name":"withdrawalHash","type":"bytes32","indexed":true,"internalType":"bytes32"},{"name":"success","type":"bool","indexed":false,"internalType":"bool"}],"anonymous":false},{"type":"event","name":"WithdrawalProven","inputs":[{"name":"withdrawalHash","type":"bytes32","indexed":true,"internalType":"bytes32"},{"name":"from","type":"address","indexed":true,"internalType":"address"},{"name":"to","type":"address","indexed":true,"internalType":"address"}],"anonymous":false},{"type":"event","name":"WithdrawalProvenExtension1","inputs":[{"name":"withdrawalHash","type":"bytes32","indexed":true,"internalType":"bytes32"},{"name":"proofSubmitter","type":"address","indexed":true,"internalType":"address"}],"anonymous":false},{"type":"error","name":"ContentLengthMismatch","inputs":[]},{"type":"error","name":"EmptyItem","inputs":[]},{"type":"error","name":"InvalidDataRemainder","inputs":[]},{"type":"error","name":"InvalidHeader","inputs":[]},{"type":"error","name":"OptimismPortal_AlreadyFinalized","inputs":[]},{"type":"error","name":"OptimismPortal_BadTarget","inputs":[]},{"type":"error","name":"OptimismPortal_CallPaused","inputs":[]},{"type":"error","name":"OptimismPortal_CalldataTooLarge","inputs":[]},{"type":"error","name":"OptimismPortal_GasEstimation","inputs":[]},{"type":"error","name":"OptimismPortal_GasLimitTooLow","inputs":[]},{"type":"error","name":"OptimismPortal_ImproperDisputeGame","inputs":[]},{"type":"error","name":"OptimismPortal_InvalidDisputeGame","inputs":[]},{"type":"error","name":"OptimismPortal_InvalidLockboxState","inputs":[]},{"type":"error","name":"OptimismPortal_InvalidMerkleProof","inputs":[]},{"type":"error","name":"OptimismPortal_InvalidOutputRootProof","inputs":[]},{"type":"error","name":"OptimismPortal_InvalidProofTimestamp","inputs":[]},{"type":"error","name":"OptimismPortal_InvalidRootClaim","inputs":[]},{"type":"error","name":"OptimismPortal_NativeDepositForbidden","inputs":[]},{"type":"error","name":"OptimismPortal_NoReentrancy","inputs":[]},{"type":"error","name":"OptimismPortal_ProofNotOldEnough","inputs":[]},{"type":"error","name":"OptimismPortal_Unauthorized","inputs":[]},{"type":"error","name":"OptimismPortal_Unproven","inputs":[]},{"type":"error","name":"OutOfGas","inputs":[]},{"type":"error","name":"ProxyAdminOwnedBase_NotProxyAdmin","inputs":[]},{"type":"error","name":"ProxyAdminOwnedBase_NotProxyAdminOrProxyAdminOwner","inputs":[]},{"type":"error","name":"ProxyAdminOwnedBase_NotProxyAdminOwner","inputs":[]},{"type":"error","name":"ProxyAdminOwnedBase_NotResolvedDelegateProxy","inputs":[]},{"type":"error","name":"ProxyAdminOwnedBase_NotSharedProxyAdminOwner","inputs":[]},{"type":"error","name":"ProxyAdminOwnedBase_ProxyAdminNotFound","inputs":[]},{"type":"error","name":"ReinitializableBase_ZeroInitVersion","inputs":[]},{"type":"error","name":"UnexpectedList","inputs":[]},{"type":"error","name":"UnexpectedString","inputs":[]}],"bytecode":{"object":"0x60c06040523480156200001157600080fd5b506040516200579338038062005793833981016040819052620000349162000111565b600360805260a0819052620000486200004f565b506200012b565b600054610100900460ff1615620000bc5760405162461bcd60e51b815260206004820152602760248201527f496e697469616c697a61626c653a20636f6e747261637420697320696e697469604482015266616c697a696e6760c81b606482015260840160405180910390fd5b60005460ff90811610156200010f576000805460ff191660ff9081179091556040519081527f7f26b83ff96e1f2b6a682f133852f6798a09c465da95921460cefb38474024989060200160405180910390a15b565b6000602082840312156200012457600080fd5b5051919050565b60805160a05161562d62000166600039600081816106a80152611dc80152600081816102cf01528181610a6101526112e3015261562d6000f3fe60806040526004361061021d5760003560e01c8063851286ea1161011d578063b4addb0a116100b0578063cff0ab961161007f578063e9e05c4211610064578063e9e05c4214610782578063f2b4e61714610795578063fca3b5aa146107aa57600080fd5b8063cff0ab96146106cc578063dad544e01461076d57600080fd5b8063b4addb0a146105cc578063b682c444146105ec578063bb2c727e1461060c578063bf653a5c1461069957600080fd5b80639bf62d82116100ec5780639bf62d821461053c578063a14238e71461055c578063a35d99df1461058c578063a3860f48146105ac57600080fd5b8063851286ea146104e75780638b4c40b0146102425780638c3152e914610507578063952b27971461052757600080fd5b806345884d32116101b0578063513747ab1161017f5780635c0cba33116101645780635c0cba33146104925780635c975abb146104b257806371c1566e146104c757600080fd5b8063513747ab1461040b57806354fd4d501461044657600080fd5b806345884d321461036d578063485cc9551461039d5780634870496f146103bd5780634fd0434c146103dd57600080fd5b80633c9f397c116101ec5780633c9f397c146102f95780633e47158c1461032357806343ca1c5014610338578063452a93201461035857600080fd5b80630900f0101461024957806333d7e2bd1461026957806335e80ab3146102a657806338d38c97146102bb57600080fd5b36610244576102423334620186a06000604051806020016040528060008152506107ca565b005b600080fd5b34801561025557600080fd5b506102426102643660046149d8565b610a5f565b34801561027557600080fd5b50603754610289906001600160a01b031681565b6040516001600160a01b0390911681526020015b60405180910390f35b3480156102b257600080fd5b50610289610bec565b3480156102c757600080fd5b5060405160ff7f000000000000000000000000000000000000000000000000000000000000000016815260200161029d565b34801561030557600080fd5b5061030e610c78565b60405163ffffffff909116815260200161029d565b34801561032f57600080fd5b50610289610cff565b34801561034457600080fd5b50610242610353366004614b74565b610ee3565b34801561036457600080fd5b506102896111f0565b34801561037957600080fd5b5061038d6103883660046149d8565b611253565b604051901515815260200161029d565b3480156103a957600080fd5b506102426103b8366004614bc6565b6112e1565b3480156103c957600080fd5b506102426103d8366004614bf4565b6114c4565b3480156103e957600080fd5b506103f2611b3d565b60405167ffffffffffffffff909116815260200161029d565b34801561041757600080fd5b50610438610426366004614cd0565b6000908152603c602052604090205490565b60405190815260200161029d565b34801561045257600080fd5b50604080518082018252600581527f352e302e300000000000000000000000000000000000000000000000000000006020820152905161029d9190614d41565b34801561049e57600080fd5b50603e54610289906001600160a01b031681565b3480156104be57600080fd5b5061038d611bc4565b3480156104d357600080fd5b506102426104e2366004614d54565b611c4b565b3480156104f357600080fd5b50610242610502366004614d79565b611ef5565b34801561051357600080fd5b50610242610522366004614da5565b612055565b34801561053357600080fd5b50610438612062565b34801561054857600080fd5b50603254610289906001600160a01b031681565b34801561056857600080fd5b5061038d610577366004614cd0565b60336020526000908152604090205460ff1681565b34801561059857600080fd5b506103f26105a7366004614df8565b6120e9565b3480156105b857600080fd5b506102896105c7366004614e15565b612102565b3480156105d857600080fd5b506102426105e7366004614e45565b61213a565b3480156105f857600080fd5b50603f54610289906001600160a01b031681565b34801561061857600080fd5b50610671610627366004614d54565b60396020908152600092835260408084209091529082529020546001600160a01b0381169074010000000000000000000000000000000000000000900467ffffffffffffffff1682565b604080516001600160a01b03909316835267ffffffffffffffff90911660208301520161029d565b3480156106a557600080fd5b507f0000000000000000000000000000000000000000000000000000000000000000610438565b3480156106d857600080fd5b50600154610734906fffffffffffffffffffffffffffffffff81169067ffffffffffffffff7001000000000000000000000000000000008204811691780100000000000000000000000000000000000000000000000090041683565b604080516fffffffffffffffffffffffffffffffff909416845267ffffffffffffffff928316602085015291169082015260600161029d565b34801561077957600080fd5b5061028961236b565b610242610790366004614e62565b6107ca565b3480156107a157600080fd5b506102896123b2565b3480156107b657600080fd5b506102426107c53660046149d8565b612415565b8260005a9050341561084d577fb42b8bfdf1143b9dfcdc891f15a039d3c36301d501f5a44f62223d852a602a00805474010000000000000000000000000000000000000000900460ff161561084b576040517fe161044200000000000000000000000000000000000000000000000000000000815260040160405180910390fd5b505b6108556124e8565b156108ca5734156108ca57603f60009054906101000a90046001600160a01b03166001600160a01b0316631ee116bf346040518263ffffffff1660e01b81526004016000604051808303818588803b1580156108b057600080fd5b505af11580156108c4573d6000803e3d6000fd5b50505050505b8380156108df57506001600160a01b03871615155b15610916576040517fc5defbad00000000000000000000000000000000000000000000000000000000815260040160405180910390fd5b61092083516120e9565b67ffffffffffffffff168567ffffffffffffffff16101561096d576040517f70c8bdbd00000000000000000000000000000000000000000000000000000000815260040160405180910390fd5b6201d4c0835111156109ab576040517f5aa3bac900000000000000000000000000000000000000000000000000000000815260040160405180910390fd5b336109b46125a7565b6109d1575033731111000000000000000000000000000000001111015b600034888888886040516020016109ec959493929190614ee1565b60405160208183030381529060405290506000896001600160a01b0316836001600160a01b03167fb3813568d9991fc951961fcb4c784893574240a28925604d09fc577c55bb7c3284604051610a429190614d41565b60405180910390a45050610a5682826125e4565b50505050505050565b7f0000000000000000000000000000000000000000000000000000000000000000600054610100900460ff16158015610a9f575060005460ff8083169116105b610b165760405162461bcd60e51b815260206004820152602e60248201527f496e697469616c697a61626c653a20636f6e747261637420697320616c72656160448201527f647920696e697469616c697a656400000000000000000000000000000000000060648201526084015b60405180910390fd5b600080547fffffffffffffffffffffffffffffffffffffffffffffffffffffffffffff00001660ff831617610100179055610b4f6128bb565b610b57612922565b603e80547fffffffffffffffffffffffff0000000000000000000000000000000000000000166001600160a01b038416179055600080547fffffffffffffffffffffffffffffffffffffffffffffffffffffffffffff00ff16905560405160ff821681527f7f26b83ff96e1f2b6a682f133852f6798a09c465da95921460cefb38474024989060200160405180910390a15050565b603754604080517f35e80ab300000000000000000000000000000000000000000000000000000000815290516000926001600160a01b0316916335e80ab39160048083019260209291908290030181865afa158015610c4f573d6000803e3d6000fd5b505050506040513d601f19601f82011682018060405250810190610c739190614f46565b905090565b603e54604080517f3c9f397c00000000000000000000000000000000000000000000000000000000815290516000926001600160a01b031691633c9f397c9160048083019260209291908290030181865afa158015610cdb573d6000803e3d6000fd5b505050506040513d601f19601f82011682018060405250810190610c739190614f75565b600080610d2a7fb53127684a568b3173ae13b9f8a6016e243e63b6e8ee1178d6a717850b5d61035490565b90506001600160a01b03811615610d4057919050565b6040518060400160405280601a81526020017f4f564d5f4c3143726f7373446f6d61696e4d657373656e676572000000000000815250516002610d839190614fc1565b604080513060208201526000918101919091527f4f564d5f4c3143726f7373446f6d61696e4d657373656e6765720000000000009190911790610dde906060015b604051602081830303815290604052805190602001205490565b14610e15576040517f54e433cd00000000000000000000000000000000000000000000000000000000815260040160405180910390fd5b60408051306020820152600191810191909152600090610e3790606001610dc4565b90506001600160a01b03811615610eb157806001600160a01b0316638da5cb5b6040518163ffffffff1660e01b8152600401602060405180830381865afa158015610e86573d6000803e3d6000fd5b505050506040513d601f19601f82011682018060405250810190610eaa9190614f46565b9250505090565b6040517f332144db00000000000000000000000000000000000000000000000000000000815260040160405180910390fd5b610eeb612ad5565b6032546001600160a01b031661dead14610f31576040517fdfeaaeb800000000000000000000000000000000000000000000000000000000815260040160405180910390fd5b610f3e8260400151612b14565b15610f75576040517fc5defbad00000000000000000000000000000000000000000000000000000000815260040160405180910390fd5b6000610f8083612b3d565b9050610f8c8183611c4b565b600081815260336020526040902080547fffffffffffffffffffffffffffffffffffffffffffffffffffffffffffffff00166001179055610fcb6124e8565b1561105d5760608301511561105d57603f5460608401516040517f8d445bd00000000000000000000000000000000000000000000000000000000081526001600160a01b0390921691638d445bd09161102a9160040190815260200190565b600060405180830381600087803b15801561104457600080fd5b505af1158015611058573d6000803e3d6000fd5b505050505b8260200151603260006101000a8154816001600160a01b0302191690836001600160a01b0316021790555060006110a68460400151856080015186606001518760a00151612b8a565b603280547fffffffffffffffffffffffff00000000000000000000000000000000000000001661dead17905560405190915082907fdb5c7652857aa163daadd670e116628fb42e869d8ac4251ef8971d9e5727df1b9061110b90841515815260200190565b60405180910390a261111b6124e8565b156111a55780158015611132575060008460600151115b156111a557603f60009054906101000a90046001600160a01b03166001600160a01b0316631ee116bf85606001516040518263ffffffff1660e01b81526004016000604051808303818588803b15801561118b57600080fd5b505af115801561119f573d6000803e3d6000fd5b50505050505b801580156111b35750326001145b156111ea576040517fab58103600000000000000000000000000000000000000000000000000000000815260040160405180910390fd5b50505050565b603754604080517f452a932000000000000000000000000000000000000000000000000000000000815290516000926001600160a01b03169163452a93209160048083019260209291908290030181865afa158015610c4f573d6000803e3d6000fd5b603e546040517f45884d320000000000000000000000000000000000000000000000000000000081526001600160a01b03838116600483015260009216906345884d3290602401602060405180830381865afa1580156112b7573d6000803e3d6000fd5b505050506040513d601f19601f820116820180604052508101906112db9190614fe0565b92915050565b7f0000000000000000000000000000000000000000000000000000000000000000600054610100900460ff16158015611321575060005460ff8083169116105b6113935760405162461bcd60e51b815260206004820152602e60248201527f496e697469616c697a61626c653a20636f6e747261637420697320616c72656160448201527f647920696e697469616c697a65640000000000000000000000000000000000006064820152608401610b0d565b600080547fffffffffffffffffffffffffffffffffffffffffffffffffffffffffffff00001660ff8316176101001790556113cc6128bb565b603780546001600160a01b038086167fffffffffffffffffffffffff000000000000000000000000000000000000000092831617909255603e80549285169290911691909117905561141c612922565b6032546001600160a01b031661145957603280547fffffffffffffffffffffffff00000000000000000000000000000000000000001661dead1790555b611461612be8565b600080547fffffffffffffffffffffffffffffffffffffffffffffffffffffffffffff00ff16905560405160ff821681527f7f26b83ff96e1f2b6a682f133852f6798a09c465da95921460cefb38474024989060200160405180910390a1505050565b6114cc612ad5565b60006114d66123b2565b6001600160a01b031663bb8aa1fc866040518263ffffffff1660e01b815260040161150391815260200190565b606060405180830381865afa158015611520573d6000803e3d6000fd5b505050506040513d601f19601f820116820180604052508101906115449190614ffd565b925050506115558660400151612b14565b1561158c576040517fc5defbad00000000000000000000000000000000000000000000000000000000815260040160405180910390fd5b603e546040517f496b9c160000000000000000000000000000000000000000000000000000000081526001600160a01b0383811660048301529091169063496b9c1690602401602060405180830381865afa1580156115ef573d6000803e3d6000fd5b505050506040513d601f19601f820116820180604052508101906116139190614fe0565b611649576040517ff395240e00000000000000000000000000000000000000000000000000000000815260040160405180910390fd5b603e546040517f04e50fed0000000000000000000000000000000000000000000000000000000081526001600160a01b038381166004830152909116906304e50fed90602401602060405180830381865afa1580156116ac573d6000803e3d6000fd5b505050506040513d601f19601f820116820180604052508101906116d09190614fe0565b611706576040517fe29927ed00000000000000000000000000000000000000000000000000000000815260040160405180910390fd5b6001816001600160a01b031663200d2ed26040518163ffffffff1660e01b8152600401602060405180830381865afa158015611746573d6000803e3d6000fd5b505050506040513d601f19601f8201168201806040525081019061176a9190615079565b600281111561177b5761177b61504a565b036117b2576040517fe29927ed00000000000000000000000000000000000000000000000000000000815260040160405180910390fd5b611824816001600160a01b031663cf09e0d06040518163ffffffff1660e01b8152600401602060405180830381865afa1580156117f3573d6000803e3d6000fd5b505050506040513d601f19601f82011682018060405250810190611817919061509a565b67ffffffffffffffff1690565b67ffffffffffffffff164211611866576040517fb4caa4e500000000000000000000000000000000000000000000000000000000815260040160405180910390fd5b61187d611878368690038601866150b7565b612ce1565b6118e5826001600160a01b031663bcef3b556040518163ffffffff1660e01b8152600401602060405180830381865afa1580156118be573d6000803e3d6000fd5b505050506040513d601f19601f820116820180604052508101906118e2919061511d565b90565b1461191c576040517f426149af00000000000000000000000000000000000000000000000000000000815260040160405180910390fd5b600061192787612b3d565b90506000816000604051602001611948929190918252602082015260400190565b60408051601f19818403018152828252805160209182012090830181905292506119bf910160408051601f19818403018152828201909152600182527f01000000000000000000000000000000000000000000000000000000000000006020830152906119b58789615136565b8960400135612d20565b15156000036119fa576040517f2e57ef3a00000000000000000000000000000000000000000000000000000000815260040160405180910390fd5b6040805180820182526001600160a01b03808616825267ffffffffffffffff42811660208085019182526000888152603982528681203380835290835287822096518754945190951674010000000000000000000000000000000000000000027fffffffff000000000000000000000000000000000000000000000000000000009094169486169490941792909217909455868152603c845284812080546001810182559082528482200180547fffffffffffffffffffffffff0000000000000000000000000000000000000000169092179091558b840151928c01519351928216939091169185917f67a6208cfcc0801d50f6cbe764733f4fddf66ac0b04442061a8a8c0cb6b63f6291a4604051339083907f798f9f13695f8f045aa5f80ed8efebb695f3c7fe65da381969f2f28bf3c60b9790600090a35050505050505050565b603e54604080517f4086d18300000000000000000000000000000000000000000000000000000000815290516000926001600160a01b031691634086d1839160048083019260209291908290030181865afa158015611ba0573d6000803e3d6000fd5b505050506040513d601f19601f82011682018060405250810190610c73919061509a565b603754604080517f5c975abb00000000000000000000000000000000000000000000000000000000815290516000926001600160a01b031691635c975abb9160048083019260209291908290030181865afa158015611c27573d6000803e3d6000fd5b505050506040513d601f19601f82011682018060405250810190610c739190614fe0565b60008281526039602090815260408083206001600160a01b0385811685529083528184208251808401845290549182168082527401000000000000000000000000000000000000000090920467ffffffffffffffff1681850152868552603390935292205490919060ff1615611ced576040517f730a107400000000000000000000000000000000000000000000000000000000815260040160405180910390fd5b816020015167ffffffffffffffff16600003611d35576040517fcca6afda00000000000000000000000000000000000000000000000000000000815260040160405180910390fd5b611d76816001600160a01b031663cf09e0d06040518163ffffffff1660e01b8152600401602060405180830381865afa1580156117f3573d6000803e3d6000fd5b67ffffffffffffffff16826020015167ffffffffffffffff1611611dc6576040517fb4caa4e500000000000000000000000000000000000000000000000000000000815260040160405180910390fd5b7f0000000000000000000000000000000000000000000000000000000000000000826020015167ffffffffffffffff1642611e0191906151ba565b11611e38576040517fd9bc01be00000000000000000000000000000000000000000000000000000000815260040160405180910390fd5b603e546040517f6c4f44670000000000000000000000000000000000000000000000000000000081526001600160a01b03838116600483015290911690636c4f446790602401602060405180830381865afa158015611e9b573d6000803e3d6000fd5b505050506040513d601f19601f82011682018060405250810190611ebf9190614fe0565b6111ea576040517f332a57f800000000000000000000000000000000000000000000000000000000815260040160405180910390fd5b620186a060005a905060007fb42b8bfdf1143b9dfcdc891f15a039d3c36301d501f5a44f62223d852a602a0080549091506001600160a01b03163314611f67576040517f991965f600000000000000000000000000000000000000000000000000000000815260040160405180910390fd5b6001600160a01b038516611fa7576040517fc5defbad00000000000000000000000000000000000000000000000000000000815260040160405180910390fd5b60008485620186a0600060405180602001604052806000815250604051602001611fd5959493929190614ee1565b60405160208183030381529060405290506000866001600160a01b031673deaddeaddeaddeaddeaddeaddeaddead00514b436001600160a01b03167fb3813568d9991fc951961fcb4c784893574240a28925604d09fc577c55bb7c328460405161203f9190614d41565b60405180910390a450506111ea82826125e4565b565b61205f8133610ee3565b50565b603e54604080517f952b279700000000000000000000000000000000000000000000000000000000815290516000926001600160a01b03169163952b27979160048083019260209291908290030181865afa1580156120c5573d6000803e3d6000fd5b505050506040513d601f19601f82011682018060405250810190610c73919061511d565b60006120f68260286151d1565b6112db90615208615201565b603c602052816000526040600020818154811061211e57600080fd5b6000918252602090912001546001600160a01b03169150829050565b61214261236b565b6001600160a01b0316336001600160a01b03161461218c576040517f991965f600000000000000000000000000000000000000000000000000000000815260040160405180910390fd5b7fb42b8bfdf1143b9dfcdc891f15a039d3c36301d501f5a44f62223d852a602a0080548215801574010000000000000000000000000000000000000000027fffffffffffffffffffffff00ffffffffffffffffffffffffffffffffffffffff909216919091178255612226576040517fad102e1d390065dadc04bf2a5b45366a16e6fb6bffc2dfa99fb3909c954cb55790600090a1612250565b6040517f84a01e9b7868317d97c3519254d4d4343d6cb252feb9f4d9a40fb1ecd3278b3f90600090a15b600080600062030d4063ffffffff16600086604051602401612276911515815260200190565b60408051601f19818403018152918152602080830180517bffffffffffffffffffffffffffffffffffffffffffffffffffffffff167fb4addb0a0000000000000000000000000000000000000000000000000000000017905290516122e096959493929101614ee1565b604051602081830303815290604052905060007342000000000000000000000000000000000000166001600160a01b031673deaddeaddeaddeaddeaddeaddeaddead00514b436001600160a01b03167fb3813568d9991fc951961fcb4c784893574240a28925604d09fc577c55bb7c328460405161235e9190614d41565b60405180910390a4505050565b6000612375610cff565b6001600160a01b0316638da5cb5b6040518163ffffffff1660e01b8152600401602060405180830381865afa158015610c4f573d6000803e3d6000fd5b603e54604080517ff2b4e61700000000000000000000000000000000000000000000000000000000815290516000926001600160a01b03169163f2b4e6179160048083019260209291908290030181865afa158015610c4f573d6000803e3d6000fd5b61241d61236b565b6001600160a01b0316336001600160a01b031614612467576040517f991965f600000000000000000000000000000000000000000000000000000000815260040160405180910390fd5b7fb42b8bfdf1143b9dfcdc891f15a039d3c36301d501f5a44f62223d852a602a0080547fffffffffffffffffffffffff0000000000000000000000000000000000000000166001600160a01b03831690811782556040517f726b590ef91a8c76ad05bbe91a57ef84605276528f49cd47d787f558a4e755b690600090a25050565b6037546040517f47af267b0000000000000000000000000000000000000000000000000000000081527f4554485f4c4f434b424f5800000000000000000000000000000000000000000060048201526000916001600160a01b0316906347af267b90602401602060405180830381865afa15801561256a573d6000803e3d6000fd5b505050506040513d601f19601f8201168201806040525081019061258e9190614fe0565b8015610c73575050603f546001600160a01b0316151590565b60003233036125b65750600190565b333b6017036125de57604051602081016040526020600082333c5160e81c62ef010014905090565b50600090565b60015460009061261a907801000000000000000000000000000000000000000000000000900467ffffffffffffffff16436151ba565b90506000612626612d44565b90506000816020015160ff16826000015163ffffffff16612647919061525c565b9050821561277e5760015460009061267e908390700100000000000000000000000000000000900467ffffffffffffffff166152a6565b90506000836040015160ff1683612695919061531a565b6001546126b59084906fffffffffffffffffffffffffffffffff1661531a565b6126bf919061525c565b600154909150600090612710906126e99084906fffffffffffffffffffffffffffffffff166153d6565b866060015163ffffffff168760a001516fffffffffffffffffffffffffffffffff16612dfd565b9050600186111561273f5761273c6126e982876040015160ff1660018a61273791906151ba565b612e1c565b90505b6fffffffffffffffffffffffffffffffff16780100000000000000000000000000000000000000000000000067ffffffffffffffff4316021760015550505b600180548691906010906127b1908490700100000000000000000000000000000000900467ffffffffffffffff16615201565b92506101000a81548167ffffffffffffffff021916908367ffffffffffffffff160217905550816000015163ffffffff16600160000160109054906101000a900467ffffffffffffffff1667ffffffffffffffff16131561283e576040517f77ebef4d00000000000000000000000000000000000000000000000000000000815260040160405180910390fd5b60015460009061286a906fffffffffffffffffffffffffffffffff1667ffffffffffffffff8816614fc1565b9050600061287c48633b9aca00612e71565b612886908361544a565b905060005a61289590886151ba565b9050808211156128b1576128b16128ac82846151ba565b612e88565b5050505050505050565b336128c4610cff565b6001600160a01b0316141580156128eb5750336128df61236b565b6001600160a01b031614155b15612053576040517fc4050a2600000000000000000000000000000000000000000000000000000000815260040160405180910390fd5b6037546040517f47af267b0000000000000000000000000000000000000000000000000000000081527f4554485f4c4f434b424f5800000000000000000000000000000000000000000060048201526001600160a01b03909116906347af267b90602401602060405180830381865afa1580156129a3573d6000803e3d6000fd5b505050506040513d601f19601f820116820180604052508101906129c79190614fe0565b80156129dc5750603f546001600160a01b0316155b80612a9e57506037546040517f47af267b0000000000000000000000000000000000000000000000000000000081527f4554485f4c4f434b424f5800000000000000000000000000000000000000000060048201526001600160a01b03909116906347af267b90602401602060405180830381865afa158015612a63573d6000803e3d6000fd5b505050506040513d601f19601f82011682018060405250810190612a879190614fe0565b158015612a9e5750603f546001600160a01b031615155b15612053576040517f9c46cd7900000000000000000000000000000000000000000000000000000000815260040160405180910390fd5b612add611bc4565b15612053576040517fb9c3c2ef00000000000000000000000000000000000000000000000000000000815260040160405180910390fd5b60006001600160a01b0382163014806112db575050603f546001600160a01b0390811691161490565b80516020808301516040808501516060860151608087015160a08801519351600097612b6d97909695910161545e565b604051602081830303815290604052805190602001209050919050565b6000806000612b9a866000612eb6565b905080612bd0576308c379a06000526020805278185361666543616c6c3a204e6f7420656e6f756768206761736058526064601cfd5b600080855160208701888b5af1979650505050505050565b600054610100900460ff16612c655760405162461bcd60e51b815260206004820152602b60248201527f496e697469616c697a61626c653a20636f6e7472616374206973206e6f74206960448201527f6e697469616c697a696e670000000000000000000000000000000000000000006064820152608401610b0d565b6001547801000000000000000000000000000000000000000000000000900467ffffffffffffffff166000036120535760408051606081018252633b9aca00808252600060208301524367ffffffffffffffff169190920181905278010000000000000000000000000000000000000000000000000217600155565b60008160000151826020015183604001518460600151604051602001612b6d949392919093845260208401929092526040830152606082015260800190565b600080612d2c86612ed4565b9050612d3a81868686612f06565b9695505050505050565b6040805160c081018252600080825260208201819052918101829052606081018290526080810182905260a0810191909152603754604080517fcc731b0200000000000000000000000000000000000000000000000000000000815290516000926001600160a01b03169163cc731b029160048083019260c09291908290030181865afa158015612dd9573d6000803e3d6000fd5b505050506040513d601f19601f820116820180604052508101906112db91906154be565b6000612e12612e0c8585612f36565b83612f46565b90505b9392505050565b6000670de0b6b3a7640000612e5d612e34858361525c565b612e4690670de0b6b3a76400006152a6565b612e5885670de0b6b3a764000061531a565b612f55565b612e67908661531a565b612e12919061525c565b600081831015612e815781612e15565b5090919050565b6000805a90505b825a612e9b90836151ba565b1015612eb157612eaa8261557a565b9150612e8f565b505050565b600080603f83619c4001026040850201603f5a021015949350505050565b60608180519060200120604051602001612ef091815260200190565b6040516020818303038152906040529050919050565b6000612f2d84612f17878686612f86565b8051602091820120825192909101919091201490565b95945050505050565b600081831215612e815781612e15565b6000818312612e815781612e15565b6000612e15670de0b6b3a764000083612f6d86613898565b612f77919061531a565b612f81919061525c565b613ac2565b60606000845111612fd95760405162461bcd60e51b815260206004820152601560248201527f4d65726b6c65547269653a20656d707479206b657900000000000000000000006044820152606401610b0d565b6000612fe484613ce7565b90506000612ff186613dd3565b905060008460405160200161300891815260200190565b60405160208183030381529060405290506000805b845181101561382957600085828151811061303a5761303a615594565b6020026020010151905084518311156130bb5760405162461bcd60e51b815260206004820152602e60248201527f4d65726b6c65547269653a206b657920696e646578206578636565647320746f60448201527f74616c206b6579206c656e6774680000000000000000000000000000000000006064820152608401610b0d565b8260000361315a5780518051602091820120604051613109926130e392910190815260200190565b604051602081830303815290604052858051602091820120825192909101919091201490565b6131555760405162461bcd60e51b815260206004820152601d60248201527f4d65726b6c65547269653a20696e76616c696420726f6f7420686173680000006044820152606401610b0d565b61327d565b8051516020116131f65780518051602091820120604051613184926130e392910190815260200190565b6131555760405162461bcd60e51b815260206004820152602760248201527f4d65726b6c65547269653a20696e76616c6964206c6172676520696e7465726e60448201527f616c2068617368000000000000000000000000000000000000000000000000006064820152608401610b0d565b80518451602080870191909120825191909201201461327d5760405162461bcd60e51b815260206004820152602660248201527f4d65726b6c65547269653a20696e76616c696420696e7465726e616c206e6f6460448201527f65206861736800000000000000000000000000000000000000000000000000006064820152608401610b0d565b613289601060016155c3565b8160200151510361343157845183036133c9576132c381602001516010815181106132b6576132b6615594565b6020026020010151613e36565b9650600087511161333c5760405162461bcd60e51b815260206004820152603b60248201527f4d65726b6c65547269653a2076616c7565206c656e677468206d75737420626560448201527f2067726561746572207468616e207a65726f20286272616e63682900000000006064820152608401610b0d565b6001865161334a91906151ba565b82146133be5760405162461bcd60e51b815260206004820152603a60248201527f4d65726b6c65547269653a2076616c7565206e6f6465206d757374206265206c60448201527f617374206e6f646520696e2070726f6f6620286272616e6368290000000000006064820152608401610b0d565b505050505050612e15565b60008584815181106133dd576133dd615594565b602001015160f81c60f81b60f81c9050600082602001518260ff168151811061340857613408615594565b6020026020010151905061341b81613eea565b95506134286001866155c3565b94505050613816565b6002816020015151036137a857600061344982613f0f565b905060008160008151811061346057613460615594565b016020015160f81c905060006134776002836155db565b6134829060026155fd565b90506000613493848360ff16613f33565b905060006134a18a89613f33565b905060006134af8383613f69565b9050808351146135275760405162461bcd60e51b815260206004820152603a60248201527f4d65726b6c65547269653a20706174682072656d61696e646572206d7573742060448201527f736861726520616c6c206e6962626c65732077697468206b65790000000000006064820152608401610b0d565b60ff85166002148061353c575060ff85166003145b156136dd57808251146135b75760405162461bcd60e51b815260206004820152603d60248201527f4d65726b6c65547269653a206b65792072656d61696e646572206d757374206260448201527f65206964656e746963616c20746f20706174682072656d61696e6465720000006064820152608401610b0d565b6135d187602001516001815181106132b6576132b6615594565b9c5060008d511161364a5760405162461bcd60e51b815260206004820152603960248201527f4d65726b6c65547269653a2076616c7565206c656e677468206d75737420626560448201527f2067726561746572207468616e207a65726f20286c65616629000000000000006064820152608401610b0d565b60018c5161365891906151ba565b88146136cc5760405162461bcd60e51b815260206004820152603860248201527f4d65726b6c65547269653a2076616c7565206e6f6465206d757374206265206c60448201527f617374206e6f646520696e2070726f6f6620286c6561662900000000000000006064820152608401610b0d565b505050505050505050505050612e15565b60ff851615806136f0575060ff85166001145b1561372f5761371c876020015160018151811061370f5761370f615594565b6020026020010151613eea565b9950613728818a6155c3565b985061379d565b60405162461bcd60e51b815260206004820152603260248201527f4d65726b6c65547269653a2072656365697665642061206e6f6465207769746860448201527f20616e20756e6b6e6f776e2070726566697800000000000000000000000000006064820152608401610b0d565b505050505050613816565b60405162461bcd60e51b815260206004820152602860248201527f4d65726b6c65547269653a20726563656976656420616e20756e70617273656160448201527f626c65206e6f64650000000000000000000000000000000000000000000000006064820152608401610b0d565b50806138218161557a565b91505061301d565b5060405162461bcd60e51b815260206004820152602560248201527f4d65726b6c65547269653a2072616e206f7574206f662070726f6f6620656c6560448201527f6d656e74730000000000000000000000000000000000000000000000000000006064820152608401610b0d565b60008082136138e95760405162461bcd60e51b815260206004820152600960248201527f554e444546494e454400000000000000000000000000000000000000000000006044820152606401610b0d565b600060606138f68461401d565b03609f8181039490941b90931c6c465772b2bbbb5f824b15207a3081018102606090811d6d0388eaa27412d5aca026815d636e018202811d6d0df99ac502031bf953eff472fdcc018202811d6d13cdffb29d51d99322bdff5f2211018202811d6d0a0f742023def783a307a986912e018202811d6d01920d8043ca89b5239253284e42018202811d6c0b7a86d7375468fac667a0a527016c29508e458543d8aa4df2abee7883018302821d6d0139601a2efabe717e604cbb4894018302821d6d02247f7a7b6594320649aa03aba1018302821d7fffffffffffffffffffffffffffffffffffffff73c0c716a594e00d54e3c4cbc9018302821d7ffffffffffffffffffffffffffffffffffffffdc7b88c420e53a9890533129f6f01830290911d7fffffffffffffffffffffffffffffffffffffff465fda27eb4d63ded474e5f832019091027ffffffffffffffff5f6af8f7b3396644f18e157960000000000000000000000000105711340daa0d5f769dba1915cef59f0815a5506027d0267a36c0c95b3975ab3ee5b203a7614a3f75373f047d803ae7b6687f2b393909302929092017d57115e47018c7177eebf7cd370a3356a1b7863008a5ae8028c72b88642840160ae1d92915050565b60007ffffffffffffffffffffffffffffffffffffffffffffffffdb731c958f34d94c18213613af357506000919050565b680755bf798b4a1bf1e58212613b4b5760405162461bcd60e51b815260206004820152600c60248201527f4558505f4f564552464c4f5700000000000000000000000000000000000000006044820152606401610b0d565b6503782dace9d9604e83901b059150600060606bb17217f7d1cf79abc9e3b39884821b056b80000000000000000000000001901d6bb17217f7d1cf79abc9e3b39881029093037fffffffffffffffffffffffffffffffffffffffdbf3ccf1604d263450f02a550481018102606090811d6d0277594991cfc85f6e2461837cd9018202811d7fffffffffffffffffffffffffffffffffffffe5adedaa1cb095af9e4da10e363c018202811d6db1bbb201f443cf962f1a1d3db4a5018202811d7ffffffffffffffffffffffffffffffffffffd38dc772608b0ae56cce01296c0eb018202811d6e05180bb14799ab47a8a8cb2a527d57016d02d16720577bd19bf614176fe9ea6c10fe68e7fd37d0007b713f765084018402831d9081019084017ffffffffffffffffffffffffffffffffffffffe2c69812cf03b0763fd454a8f7e010290911d6e0587f503bb6ea29d25fcb7401964500190910279d835ebba824c98fb31b83b2ca45c000000000000000000000000010574029d9dc38563c32e5c2f6dc192ee70ef65f9978af30260c3939093039290921c92915050565b80516060908067ffffffffffffffff811115613d0557613d056149f5565b604051908082528060200260200182016040528015613d4a57816020015b6040805180820190915260608082526020820152815260200190600190039081613d235790505b50915060005b81811015613dcc576040518060400160405280858381518110613d7557613d75615594565b60200260200101518152602001613da4868481518110613d9757613d97615594565b60200260200101516140d9565b815250838281518110613db957613db9615594565b6020908102919091010152600101613d50565b5050919050565b606080604051905082518060011b603f8101601f1916830160405280835250602084016020830160005b83811015613e2b578060011b82018184015160001a8060041c8253600f811660018301535050600101613dfd565b509295945050505050565b60606000806000613e46856140ec565b919450925090506000816001811115613e6157613e6161504a565b14613e98576040517f1ff9b2e400000000000000000000000000000000000000000000000000000000815260040160405180910390fd5b613ea282846155c3565b855114613edb576040517f5c5537b800000000000000000000000000000000000000000000000000000000815260040160405180910390fd5b612f2d8560200151848461458a565b60606020826000015110613f0657613f0182613e36565b6112db565b6112db8261461e565b60606112db613f2e83602001516000815181106132b6576132b6615594565b613dd3565b606082518210613f5257506040805160208101909152600081526112db565b612e158383848651613f6491906151ba565b614634565b6000808251845110613f7c578251613f7f565b83515b90505b80821080156140065750828281518110613f9e57613f9e615594565b602001015160f81c60f81b7effffffffffffffffffffffffffffffffffffffffffffffffffffffffffffff1916848381518110613fdd57613fdd615594565b01602001517fff0000000000000000000000000000000000000000000000000000000000000016145b1561401657816001019150613f82565b5092915050565b600080821161406e5760405162461bcd60e51b815260206004820152600960248201527f554e444546494e454400000000000000000000000000000000000000000000006044820152606401610b0d565b5060016fffffffffffffffffffffffffffffffff821160071b82811c67ffffffffffffffff1060061b1782811c63ffffffff1060051b1782811c61ffff1060041b1782811c60ff10600390811b90911783811c600f1060021b1783811c909110821b1791821c111790565b60606112db6140e7836147a0565b61480d565b6000806000836000015160000361412f576040517f5ab458fb00000000000000000000000000000000000000000000000000000000815260040160405180910390fd5b6020840151805160001a607f8111614154576000600160009450945094505050614583565b60b7811161426a5760006141696080836151ba565b9050808760000151116141a8576040517f66c9448500000000000000000000000000000000000000000000000000000000815260040160405180910390fd5b6001838101517fff0000000000000000000000000000000000000000000000000000000000000016908214801561422057507f80000000000000000000000000000000000000000000000000000000000000007fff000000000000000000000000000000000000000000000000000000000000008216105b15614257576040517fbabb01dd00000000000000000000000000000000000000000000000000000000815260040160405180910390fd5b5060019550935060009250614583915050565b60bf81116143c857600061427f60b7836151ba565b9050808760000151116142be576040517f66c9448500000000000000000000000000000000000000000000000000000000815260040160405180910390fd5b60018301517fff00000000000000000000000000000000000000000000000000000000000000166000819003614320576040517fbabb01dd00000000000000000000000000000000000000000000000000000000815260040160405180910390fd5b600184015160088302610100031c60378111614368576040517fbabb01dd00000000000000000000000000000000000000000000000000000000815260040160405180910390fd5b61437281846155c3565b8951116143ab576040517f66c9448500000000000000000000000000000000000000000000000000000000815260040160405180910390fd5b6143b68360016155c3565b97509550600094506145839350505050565b60f7811161442d5760006143dd60c0836151ba565b90508087600001511161441c576040517f66c9448500000000000000000000000000000000000000000000000000000000815260040160405180910390fd5b600195509350849250614583915050565b600061443a60f7836151ba565b905080876000015111614479576040517f66c9448500000000000000000000000000000000000000000000000000000000815260040160405180910390fd5b60018301517fff000000000000000000000000000000000000000000000000000000000000001660008190036144db576040517fbabb01dd00000000000000000000000000000000000000000000000000000000815260040160405180910390fd5b600184015160088302610100031c60378111614523576040517fbabb01dd00000000000000000000000000000000000000000000000000000000815260040160405180910390fd5b61452d81846155c3565b895111614566576040517f66c9448500000000000000000000000000000000000000000000000000000000815260040160405180910390fd5b6145718360016155c3565b97509550600194506145839350505050565b9193909250565b60608167ffffffffffffffff8111156145a5576145a56149f5565b6040519080825280601f01601f1916602001820160405280156145cf576020820181803683370190505b5090508115612e155760006145e484866155c3565b90506020820160005b848110156146055782810151828201526020016145ed565b84811115614614576000858301525b5050509392505050565b60606112db82602001516000846000015161458a565b60608182601f0110156146895760405162461bcd60e51b815260206004820152600e60248201527f736c6963655f6f766572666c6f770000000000000000000000000000000000006044820152606401610b0d565b8282840110156146db5760405162461bcd60e51b815260206004820152600e60248201527f736c6963655f6f766572666c6f770000000000000000000000000000000000006044820152606401610b0d565b8183018451101561472e5760405162461bcd60e51b815260206004820152601160248201527f736c6963655f6f75744f66426f756e64730000000000000000000000000000006044820152606401610b0d565b60608215801561474d5760405191506000825260208201604052614797565b6040519150601f8416801560200281840101858101878315602002848b0101015b8183101561478657805183526020928301920161476e565b5050858452601f01601f1916604052505b50949350505050565b604080518082019091526000808252602082015281516000036147ef576040517f5ab458fb00000000000000000000000000000000000000000000000000000000815260040160405180910390fd5b50604080518082019091528151815260209182019181019190915290565b6060600080600061481d856140ec565b9194509250905060018160018111156148385761483861504a565b1461486f576040517f4b9c6abe00000000000000000000000000000000000000000000000000000000815260040160405180910390fd5b845161487b83856155c3565b146148b2576040517f5c5537b800000000000000000000000000000000000000000000000000000000815260040160405180910390fd5b604080516020808252610420820190925290816020015b60408051808201909152600080825260208201528152602001906001900390816148c95790505093506000835b86518110156149b75760008061493c6040518060400160405280858c6000015161492091906151ba565b8152602001858c6020015161493591906155c3565b90526140ec565b50915091506040518060400160405280838361495891906155c3565b8152602001848b6020015161496d91906155c3565b81525088858151811061498257614982615594565b60209081029190910101526149986001856155c3565b93506149a481836155c3565b6149ae90846155c3565b925050506148f6565b50845250919392505050565b6001600160a01b038116811461205f57600080fd5b6000602082840312156149ea57600080fd5b8135612e15816149c3565b7f4e487b7100000000000000000000000000000000000000000000000000000000600052604160045260246000fd5b604051601f8201601f1916810167ffffffffffffffff81118282101715614a4d57614a4d6149f5565b604052919050565b600082601f830112614a6657600080fd5b813567ffffffffffffffff811115614a8057614a806149f5565b614a936020601f19601f84011601614a24565b818152846020838601011115614aa857600080fd5b816020850160208301376000918101602001919091529392505050565b600060c08284031215614ad757600080fd5b60405160c0810167ffffffffffffffff8282108183111715614afb57614afb6149f5565b816040528293508435835260208501359150614b16826149c3565b81602084015260408501359150614b2c826149c3565b816040840152606085013560608401526080850135608084015260a0850135915080821115614b5a57600080fd5b50614b6785828601614a55565b60a0830152505092915050565b60008060408385031215614b8757600080fd5b823567ffffffffffffffff811115614b9e57600080fd5b614baa85828601614ac5565b9250506020830135614bbb816149c3565b809150509250929050565b60008060408385031215614bd957600080fd5b8235614be4816149c3565b91506020830135614bbb816149c3565b600080600080600085870360e0811215614c0d57600080fd5b863567ffffffffffffffff80821115614c2557600080fd5b614c318a838b01614ac5565b97506020890135965060807fffffffffffffffffffffffffffffffffffffffffffffffffffffffffffffffc084011215614c6a57600080fd5b60408901955060c0890135925080831115614c8457600080fd5b828901925089601f840112614c9857600080fd5b8235915080821115614ca957600080fd5b508860208260051b8401011115614cbf57600080fd5b959894975092955050506020019190565b600060208284031215614ce257600080fd5b5035919050565b60005b83811015614d04578181015183820152602001614cec565b838111156111ea5750506000910152565b60008151808452614d2d816020860160208601614ce9565b601f01601f19169290920160200192915050565b602081526000612e156020830184614d15565b60008060408385031215614d6757600080fd5b823591506020830135614bbb816149c3565b60008060408385031215614d8c57600080fd5b8235614d97816149c3565b946020939093013593505050565b600060208284031215614db757600080fd5b813567ffffffffffffffff811115614dce57600080fd5b614dda84828501614ac5565b949350505050565b67ffffffffffffffff8116811461205f57600080fd5b600060208284031215614e0a57600080fd5b8135612e1581614de2565b60008060408385031215614e2857600080fd5b50508035926020909101359150565b801515811461205f57600080fd5b600060208284031215614e5757600080fd5b8135612e1581614e37565b600080600080600060a08688031215614e7a57600080fd5b8535614e85816149c3565b9450602086013593506040860135614e9c81614de2565b92506060860135614eac81614e37565b9150608086013567ffffffffffffffff811115614ec857600080fd5b614ed488828901614a55565b9150509295509295909350565b8581528460208201527fffffffffffffffff0000000000000000000000000000000000000000000000008460c01b16604082015282151560f81b604882015260008251614f35816049850160208701614ce9565b919091016049019695505050505050565b600060208284031215614f5857600080fd5b8151612e15816149c3565b63ffffffff8116811461205f57600080fd5b600060208284031215614f8757600080fd5b8151612e1581614f63565b7f4e487b7100000000000000000000000000000000000000000000000000000000600052601160045260246000fd5b6000816000190483118215151615614fdb57614fdb614f92565b500290565b600060208284031215614ff257600080fd5b8151612e1581614e37565b60008060006060848603121561501257600080fd5b835161501d81614f63565b602085015190935061502e81614de2565b604085015190925061503f816149c3565b809150509250925092565b7f4e487b7100000000000000000000000000000000000000000000000000000000600052602160045260246000fd5b60006020828403121561508b57600080fd5b815160038110612e1557600080fd5b6000602082840312156150ac57600080fd5b8151612e1581614de2565b6000608082840312156150c957600080fd5b6040516080810181811067ffffffffffffffff821117156150ec576150ec6149f5565b8060405250823581526020830135602082015260408301356040820152606083013560608201528091505092915050565b60006020828403121561512f57600080fd5b5051919050565b600067ffffffffffffffff80841115615151576151516149f5565b8360051b6020615162818301614a24565b86815291850191818101903684111561517a57600080fd5b865b848110156151ae578035868111156151945760008081fd5b6151a036828b01614a55565b84525091830191830161517c565b50979650505050505050565b6000828210156151cc576151cc614f92565b500390565b600067ffffffffffffffff808316818516818304811182151516156151f8576151f8614f92565b02949350505050565b600067ffffffffffffffff80831681851680830382111561522457615224614f92565b01949350505050565b7f4e487b7100000000000000000000000000000000000000000000000000000000600052601260045260246000fd5b60008261526b5761526b61522d565b60001983147f8000000000000000000000000000000000000000000000000000000000000000831416156152a1576152a1614f92565b500590565b6000808312837f8000000000000000000000000000000000000000000000000000000000000000018312811516156152e0576152e0614f92565b837f7fffffffffffffffffffffffffffffffffffffffffffffffffffffffffffffff01831381161561531457615314614f92565b50500390565b60007f7fffffffffffffffffffffffffffffffffffffffffffffffffffffffffffffff60008413600084138583048511828216161561535b5761535b614f92565b7f8000000000000000000000000000000000000000000000000000000000000000600087128682058812818416161561539657615396614f92565b600087129250878205871284841616156153b2576153b2614f92565b878505871281841616156153c8576153c8614f92565b505050929093029392505050565b6000808212827f7fffffffffffffffffffffffffffffffffffffffffffffffffffffffffffffff0384138115161561541057615410614f92565b827f800000000000000000000000000000000000000000000000000000000000000003841281161561544457615444614f92565b50500190565b6000826154595761545961522d565b500490565b86815260006001600160a01b03808816602084015280871660408401525084606083015283608083015260c060a083015261549c60c0830184614d15565b98975050505050505050565b805160ff811681146154b957600080fd5b919050565b600060c082840312156154d057600080fd5b60405160c0810181811067ffffffffffffffff821117156154f3576154f36149f5565b604052825161550181614f63565b815261550f602084016154a8565b6020820152615520604084016154a8565b6040820152606083015161553381614f63565b6060820152608083015161554681614f63565b608082015260a08301516fffffffffffffffffffffffffffffffff8116811461556e57600080fd5b60a08201529392505050565b6000600019820361558d5761558d614f92565b5060010190565b7f4e487b7100000000000000000000000000000000000000000000000000000000600052603260045260246000fd5b600082198211156155d6576155d6614f92565b500190565b600060ff8316806155ee576155ee61522d565b8060ff84160691505092915050565b600060ff821660ff84168082101561561757615617614f92565b9003939250505056fea164736f6c634300080f000a","linkReferences":{}},"methodIdentifiers":{"anchorStateRegistry()":"5c0cba33","checkWithdrawal(bytes32,address)":"71c1566e","depositTransaction(address,uint256,uint64,bool,bytes)":"e9e05c42","disputeGameBlacklist(address)":"45884d32","disputeGameFactory()":"f2b4e617","disputeGameFinalityDelaySeconds()":"952b2797","donateETH()":"8b4c40b0","ethLockbox()":"b682c444","finalizeWithdrawalTransaction((uint256,address,address,uint256,uint256,bytes))":"8c3152e9","finalizeWithdrawalTransactionExternalProof((uint256,address,address,uint256,uint256,bytes),address)":"43ca1c50","finalizedWithdrawals(bytes32)":"a14238e7","guardian()":"452a9320","initVersion()":"38d38c97","initialize(address,address)":"485cc955","l2Sender()":"9bf62d82","minimumGasLimit(uint64)":"a35d99df","mintTransaction(address,uint256)":"851286ea","numProofSubmitters(bytes32)":"513747ab","params()":"cff0ab96","paused()":"5c975abb","proofMaturityDelaySeconds()":"bf653a5c","proofSubmitters(bytes32,uint256)":"a3860f48","proveWithdrawalTransaction((uint256,address,address,uint256,uint256,bytes),uint256,(bytes32,bytes32,bytes32,bytes32),bytes[])":"4870496f","provenWithdrawals(bytes32,address)":"bb2c727e","proxyAdmin()":"3e47158c","proxyAdminOwner()":"dad544e0","respectedGameType()":"3c9f397c","respectedGameTypeUpdatedAt()":"4fd0434c","setMinter(address)":"fca3b5aa","setNativeDeposit(bool)":"b4addb0a","superchainConfig()":"35e80ab3","systemConfig()":"33d7e2bd","upgrade(address)":"0900f010","version()":"54fd4d50"},"storageLayout":{"storage":[{"astId":49773,"contract":"src/L1/OptimismPortal2.sol:OptimismPortal2","label":"_initialized","offset":0,"slot":"0","type":"t_uint8"},{"astId":49776,"contract":"src/L1/OptimismPortal2.sol:OptimismPortal2","label":"_initializing","offset":1,"slot":"0","type":"t_bool"},{"astId":91166,"contract":"src/L1/OptimismPortal2.sol:OptimismPortal2","label":"params","offset":0,"slot":"1","type":"t_struct(ResourceParams)91149_storage"},{"astId":91171,"contract":"src/L1/OptimismPortal2.sol:OptimismPortal2","label":"__gap","offset":0,"slot":"2","type":"t_array(t_uint256)48_storage"},{"astId":89667,"contract":"src/L1/OptimismPortal2.sol:OptimismPortal2","label":"l2Sender","offset":0,"slot":"50","type":"t_address"},{"astId":89672,"contract":"src/L1/OptimismPortal2.sol:OptimismPortal2","label":"finalizedWithdrawals","offset":0,"slot":"51","type":"t_mapping(t_bytes32,t_bool)"},{"astId":89675,"contract":"src/L1/OptimismPortal2.sol:OptimismPortal2","label":"spacer_52_0_32","offset":0,"slot":"52","type":"t_bytes32"},{"astId":89678,"contract":"src/L1/OptimismPortal2.sol:OptimismPortal2","label":"spacer_53_0_1","offset":0,"slot":"53","type":"t_bool"},{"astId":89681,"contract":"src/L1/OptimismPortal2.sol:OptimismPortal2","label":"spacer_53_1_20","offset":1,"slot":"53","type":"t_address"},{"astId":89684,"contract":"src/L1/OptimismPortal2.sol:OptimismPortal2","label":"spacer_54_0_20","offset":0,"slot":"54","type":"t_address"},{"astId":89688,"contract":"src/L1/OptimismPortal2.sol:OptimismPortal2","label":"systemConfig","offset":0,"slot":"55","type":"t_contract(ISystemConfig)3073"},{"astId":89691,"contract":"src/L1/OptimismPortal2.sol:OptimismPortal2","label":"spacer_56_0_20","offset":0,"slot":"56","type":"t_address"},{"astId":89699,"contract":"src/L1/OptimismPortal2.sol:OptimismPortal2","label":"provenWithdrawals","offset":0,"slot":"57","type":"t_mapping(t_bytes32,t_mapping(t_address,t_struct(ProvenWithdrawal)89649_storage))"},{"astId":89702,"contract":"src/L1/OptimismPortal2.sol:OptimismPortal2","label":"spacer_58_0_32","offset":0,"slot":"58","type":"t_bytes32"},{"astId":89706,"contract":"src/L1/OptimismPortal2.sol:OptimismPortal2","label":"spacer_59_0_4","offset":0,"slot":"59","type":"t_userDefinedValueType(GameType)96362"},{"astId":89709,"contract":"src/L1/OptimismPortal2.sol:OptimismPortal2","label":"spacer_59_4_8","offset":4,"slot":"59","type":"t_uint64"},{"astId":89715,"contract":"src/L1/OptimismPortal2.sol:OptimismPortal2","label":"proofSubmitters","offset":0,"slot":"60","type":"t_mapping(t_bytes32,t_array(t_address)dyn_storage)"},{"astId":89718,"contract":"src/L1/OptimismPortal2.sol:OptimismPortal2","label":"spacer_61_0_32","offset":0,"slot":"61","type":"t_uint256"},{"astId":89722,"contract":"src/L1/OptimismPortal2.sol:OptimismPortal2","label":"anchorStateRegistry","offset":0,"slot":"62","type":"t_contract(IAnchorStateRegistry)5117"},{"astId":89726,"contract":"src/L1/OptimismPortal2.sol:OptimismPortal2","label":"ethLockbox","offset":0,"slot":"63","type":"t_contract(IETHLockbox)380"},{"astId":89729,"contract":"src/L1/OptimismPortal2.sol:OptimismPortal2","label":"spacer_63_20_1","offset":20,"slot":"63","type":"t_bool"}],"types":{"t_address":{"encoding":"inplace","label":"address","numberOfBytes":"20"},"t_array(t_address)dyn_storage":{"encoding":"dynamic_array","label":"address[]","numberOfBytes":"32","base":"t_address"},"t_array(t_uint256)48_storage":{"encoding":"inplace","label":"uint256[48]","numberOfBytes":"1536","base":"t_uint256"},"t_bool":{"encoding":"inplace","label":"bool","numberOfBytes":"1"},"t_bytes32":{"encoding":"inplace","label":"bytes32","numberOfBytes":"32"},"t_contract(IAnchorStateRegistry)5117":{"encoding":"inplace","label":"contract IAnchorStateRegistry","numberOfBytes":"20"},"t_contract(IDisputeGame)5463":{"encoding":"inplace","label":"contract IDisputeGame","numberOfBytes":"20"},"t_contract(IETHLockbox)380":{"encoding":"inplace","label":"contract IETHLockbox","numberOfBytes":"20"},"t_contract(ISystemConfig)3073":{"encoding":"inplace","label":"contract ISystemConfig","numberOfBytes":"20"},"t_mapping(t_address,t_struct(ProvenWithdrawal)89649_storage)":{"encoding":"mapping","key":"t_address","label":"mapping(address => struct OptimismPortal2.ProvenWithdrawal)","numberOfBytes":"32","value":"t_struct(ProvenWithdrawal)89649_storage"},"t_mapping(t_bytes32,t_array(t_address)dyn_storage)":{"encoding":"mapping","key":"t_bytes32","label":"mapping(bytes32 => address[])","numberOfBytes":"32","value":"t_array(t_address)dyn_storage"},"t_mapping(t_bytes32,t_bool)":{"encoding":"mapping","key":"t_bytes32","label":"mapping(bytes32 => bool)","numberOfBytes":"32","value":"t_bool"},"t_mapping(t_bytes32,t_mapping(t_address,t_struct(ProvenWithdrawal)89649_storage))":{"encoding":"mapping","key":"t_bytes32","label":"mapping(bytes32 => mapping(address => struct OptimismPortal2.ProvenWithdrawal))","numberOfBytes":"32","value":"t_mapping(t_address,t_struct(ProvenWithdrawal)89649_storage)"},"t_struct(ProvenWithdrawal)89649_storage":{"encoding":"inplace","label":"struct OptimismPortal2.ProvenWithdrawal","numberOfBytes":"32","members":[{"astId":89646,"contract":"src/L1/OptimismPortal2.sol:OptimismPortal2","label":"disputeGameProxy","offset":0,"slot":"0","type":"t_contract(IDisputeGame)5463"},{"astId":89648,"contract":"src/L1/OptimismPortal2.sol:OptimismPortal2","label":"timestamp","offset":20,"slot":"0","type":"t_uint64"}]},"t_struct(ResourceParams)91149_storage":{"encoding":"inplace","label":"struct ResourceMetering.ResourceParams","numberOfBytes":"32","members":[{"astId":91144,"contract":"src/L1/OptimismPortal2.sol:OptimismPortal2","label":"prevBaseFee","offset":0,"slot":"0","type":"t_uint128"},{"astId":91146,"contract":"src/L1/OptimismPortal2.sol:OptimismPortal2","label":"prevBoughtGas","offset":16,"slot":"0","type":"t_uint64"},{"astId":91148,"contract":"src/L1/OptimismPortal2.sol:OptimismPortal2","label":"prevBlockNum","offset":24,"slot":"0","type":"t_uint64"}]},"t_uint128":{"encoding":"inplace","label":"uint128","numberOfBytes":"16"},"t_uint256":{"encoding":"inplace","label":"uint256","numberOfBytes":"32"},"t_uint64":{"encoding":"inplace","label":"uint64","numberOfBytes":"8"},"t_uint8":{"encoding":"inplace","label":"uint8","numberOfBytes":"1"},"t_userDefinedValueType(GameType)96362":{"encoding":"inplace","label":"GameType","numberOfBytes":"4"}}},"userdoc":{"version":1,"kind":"user","methods":{"anchorStateRegistry()":{"notice":"Address of the AnchorStateRegistry contract."},"checkWithdrawal(bytes32,address)":{"notice":"Checks that a withdrawal has been proven and is ready to be finalized."},"depositTransaction(address,uint256,uint64,bool,bytes)":{"notice":"Accepts deposits of ETH and data, and emits a TransactionDeposited event for use in         deriving deposit transactions. Note that if a deposit is made by a contract, its         address will be aliased when retrieved using `tx.origin` or `msg.sender`. Consider         using the CrossDomainMessenger contracts for a simpler developer experience."},"disputeGameFactory()":{"notice":"Getter for the address of the DisputeGameFactory contract."},"donateETH()":{"notice":"Accepts ETH value without triggering a deposit to L2."},"ethLockbox()":{"notice":"Address of the ETHLockbox contract. NOTE that as of v4.1.0 it is not possible to         set this value in storage and it is only possible for this value to be set if the         chain was first upgraded to v4.0.0. Chains that skip v4.0.0 will not have any         ETHLockbox set here."},"finalizeWithdrawalTransaction((uint256,address,address,uint256,uint256,bytes))":{"notice":"Finalizes a withdrawal transaction."},"finalizeWithdrawalTransactionExternalProof((uint256,address,address,uint256,uint256,bytes),address)":{"notice":"Finalizes a withdrawal transaction, using an external proof submitter."},"finalizedWithdrawals(bytes32)":{"notice":"A list of withdrawal hashes which have been successfully finalized."},"initVersion()":{"notice":"Getter for the current initialization version."},"initialize(address,address)":{"notice":"Initializer."},"l2Sender()":{"notice":"Address of the L2 account which initiated a withdrawal in this transaction.         If the value of this variable is the default L2 sender address, then we are NOT         inside of a call to finalizeWithdrawalTransaction."},"minimumGasLimit(uint64)":{"notice":"Computes the minimum gas limit for a deposit.         The minimum gas limit linearly increases based on the size of the calldata.         This is to prevent users from creating L2 resource usage without paying for it.         This function can be used when interacting with the portal to ensure forwards         compatibility."},"mintTransaction(address,uint256)":{"notice":"Mint a specific amount of L2 native token to an address."},"numProofSubmitters(bytes32)":{"notice":"External getter for the number of proof submitters for a withdrawal hash."},"params()":{"notice":"EIP-1559 style gas parameters."},"paused()":{"notice":"Getter for the current paused status."},"proofMaturityDelaySeconds()":{"notice":"Getter for the proof maturity delay."},"proofSubmitters(bytes32,uint256)":{"notice":"Mapping of withdrawal hashes to addresses that have submitted a proof for the         withdrawal. Original OptimismPortal contract only allowed one proof to be submitted         for any given withdrawal hash. Fault Proofs version of this contract must allow         multiple proofs for the same withdrawal hash to prevent a malicious user from         blocking other withdrawals by proving them against invalid proposals. Submitters         are tracked in an array to simplify the off-chain process of determining which         proof submission should be used when finalizing a withdrawal."},"proveWithdrawalTransaction((uint256,address,address,uint256,uint256,bytes),uint256,(bytes32,bytes32,bytes32,bytes32),bytes[])":{"notice":"Proves a withdrawal transaction using an Output Root proof. Only callable when the         OptimismPortal is using Output Roots (superRootsActive flag is false)."},"provenWithdrawals(bytes32,address)":{"notice":"A mapping of withdrawal hashes to proof submitters to ProvenWithdrawal data."},"proxyAdmin()":{"notice":"Getter for the ProxyAdmin contract that owns this Proxy contract."},"proxyAdminOwner()":{"notice":"Getter for the owner of the ProxyAdmin."},"setMinter(address)":{"notice":"Add a minter to the OptimismPortal contract. To disable, set an empty value."},"setNativeDeposit(bool)":{"notice":"set native deposit flag. Pass true to disable."},"superchainConfig()":{"notice":"Returns the SuperchainConfig contract."},"systemConfig()":{"notice":"Address of the SystemConfig contract."},"upgrade(address)":{"notice":"Upgrades the OptimismPortal contract to have a reference to the AnchorStateRegistry and SystemConfig"},"version()":{"notice":"Semantic version."}},"events":{"MinterSet(address)":{"notice":"Emitted when a minter is set."},"NativeDepositDisabled()":{"notice":"Emitted when native deposit is disabled."},"NativeDepositEnabled()":{"notice":"Emitted when native deposit is enabled."},"TransactionDeposited(address,address,uint256,bytes)":{"notice":"Emitted when a transaction is deposited from L1 to L2. The parameters of this event         are read by the rollup node and used to derive deposit transactions on L2."},"WithdrawalFinalized(bytes32,bool)":{"notice":"Emitted when a withdrawal transaction is finalized."},"WithdrawalProven(bytes32,address,address)":{"notice":"Emitted when a withdrawal transaction is proven."},"WithdrawalProvenExtension1(bytes32,address)":{"notice":"Emitted when a withdrawal transaction is proven. Exists as a separate event to         allow for backwards compatibility for tooling that observes the WithdrawalProven         event."}},"errors":{"ContentLengthMismatch()":[{"notice":"The length of the content must be greater than the RLP item length"}],"EmptyItem()":[{"notice":"The length of an RLP item must be greater than zero to be decodable"}],"InvalidDataRemainder()":[{"notice":"The RLP item has an invalid data remainder"}],"InvalidHeader()":[{"notice":"Invalid RLP header for RLP item"}],"OptimismPortal_AlreadyFinalized()":[{"notice":"Thrown when a withdrawal has already been finalized."}],"OptimismPortal_BadTarget()":[{"notice":"Thrown when the target of a withdrawal is unsafe."}],"OptimismPortal_CallPaused()":[{"notice":"Thrown when the portal is paused."}],"OptimismPortal_CalldataTooLarge()":[{"notice":"Thrown when the calldata for a deposit is too large."}],"OptimismPortal_GasEstimation()":[{"notice":"Thrown when a gas estimation transaction is being executed."}],"OptimismPortal_GasLimitTooLow()":[{"notice":"Thrown when the gas limit for a deposit is too low."}],"OptimismPortal_ImproperDisputeGame()":[{"notice":"Thrown when the target of a withdrawal is not a proper dispute game."}],"OptimismPortal_InvalidDisputeGame()":[{"notice":"Thrown when a withdrawal has not been proven against a valid dispute game."}],"OptimismPortal_InvalidLockboxState()":[{"notice":"Thrown when ETHLockbox is set/unset incorrectly depending on the feature flag."}],"OptimismPortal_InvalidMerkleProof()":[{"notice":"Thrown when a withdrawal has not been proven against a valid merkle proof."}],"OptimismPortal_InvalidOutputRootProof()":[{"notice":"Thrown when a withdrawal has not been proven against a valid output root proof."}],"OptimismPortal_InvalidProofTimestamp()":[{"notice":"Thrown when a withdrawal's timestamp is not greater than the dispute game's creation timestamp."}],"OptimismPortal_InvalidRootClaim()":[{"notice":"Thrown when the root claim of a dispute game is invalid."}],"OptimismPortal_NoReentrancy()":[{"notice":"Thrown when a withdrawal is being finalized by a reentrant call."}],"OptimismPortal_ProofNotOldEnough()":[{"notice":"Thrown when a withdrawal has not been proven for long enough."}],"OptimismPortal_Unauthorized()":[{"notice":"added back by QKC"}],"OptimismPortal_Unproven()":[{"notice":"Thrown when a withdrawal has not been proven."}],"OutOfGas()":[{"notice":"Error returned when too much gas resource is consumed."}],"ProxyAdminOwnedBase_NotProxyAdmin()":[{"notice":"Thrown when the caller is not the ProxyAdmin."}],"ProxyAdminOwnedBase_NotProxyAdminOrProxyAdminOwner()":[{"notice":"Thrown when the caller is not the ProxyAdmin owner or the ProxyAdmin."}],"ProxyAdminOwnedBase_NotProxyAdminOwner()":[{"notice":"Thrown when the caller is not the ProxyAdmin owner."}],"ProxyAdminOwnedBase_NotResolvedDelegateProxy()":[{"notice":"Thrown when the current contract is not a ResolvedDelegateProxy."}],"ProxyAdminOwnedBase_NotSharedProxyAdminOwner()":[{"notice":"Thrown when the ProxyAdmin owner of the current contract is not the same as the         ProxyAdmin owner of the other Proxy address provided."}],"ProxyAdminOwnedBase_ProxyAdminNotFound()":[{"notice":"Thrown when the ProxyAdmin owner of the current contract is not found."}],"ReinitializableBase_ZeroInitVersion()":[{"notice":"Thrown when the initialization version is zero."}],"UnexpectedList()":[{"notice":"Decoded item type for bytes is not a string item"}],"UnexpectedString()":[{"notice":"The decoded item type for list is not a list item"}]},"notice":"The OptimismPortal is a low-level contract responsible for passing messages between L1         and L2. Messages sent directly to the OptimismPortal have no form of replayability.         Users are encouraged to use the L1CrossDomainMessenger for a higher-level interface."},"devdoc":{"version":1,"kind":"dev","methods":{"checkWithdrawal(bytes32,address)":{"params":{"_proofSubmitter":"Address of the proof submitter.","_withdrawalHash":"Hash of the withdrawal."}},"constructor":{"params":{"_proofMaturityDelaySeconds":"The proof maturity delay in seconds."}},"depositTransaction(address,uint256,uint64,bool,bytes)":{"details":"The `msg.value` is locked on the ETHLockbox and minted as ETH when the deposit         arrives on L2, while `_value` specifies how much ETH to send to the target.","params":{"_data":"Data to trigger the recipient with.","_gasLimit":"Amount of L2 gas to purchase by burning gas on L1.","_isCreation":"Whether or not the transaction is a contract creation.","_to":"Target address on L2.","_value":"ETH value to send to the recipient."}},"disputeGameBlacklist(address)":{"params":{"_disputeGame":"The dispute game to check."},"returns":{"_0":"Whether the dispute game is blacklisted."}},"disputeGameFinalityDelaySeconds()":{},"finalizeWithdrawalTransaction((uint256,address,address,uint256,uint256,bytes))":{"params":{"_tx":"Withdrawal transaction to finalize."}},"finalizeWithdrawalTransactionExternalProof((uint256,address,address,uint256,uint256,bytes),address)":{"params":{"_proofSubmitter":"Address of the proof submitter.","_tx":"Withdrawal transaction to finalize."}},"guardian()":{},"initVersion()":{"returns":{"_0":"The current initialization version."}},"initialize(address,address)":{"params":{"_anchorStateRegistry":"Address of the AnchorStateRegistry.","_systemConfig":"Address of the SystemConfig."}},"minimumGasLimit(uint64)":{"params":{"_byteCount":"Number of bytes in the calldata."},"returns":{"_0":"The minimum gas limit for a deposit."}},"numProofSubmitters(bytes32)":{"params":{"_withdrawalHash":"Hash of the withdrawal."},"returns":{"_0":"The number of proof submitters for the withdrawal hash."}},"proveWithdrawalTransaction((uint256,address,address,uint256,uint256,bytes),uint256,(bytes32,bytes32,bytes32,bytes32),bytes[])":{"params":{"_disputeGameIndex":"Index of the dispute game to prove the withdrawal against.","_outputRootProof":"Inclusion proof of the L2ToL1MessagePasser storage root.","_tx":"Withdrawal transaction to finalize.","_withdrawalProof":"Inclusion proof of the withdrawal within the L2ToL1MessagePasser."}},"respectedGameType()":{},"respectedGameTypeUpdatedAt()":{},"superchainConfig()":{"returns":{"_0":"ISuperchainConfig The SuperchainConfig contract."}},"upgrade(address)":{"params":{"_anchorStateRegistry":"AnchorStateRegistry contract."}},"version()":{}},"events":{"TransactionDeposited(address,address,uint256,bytes)":{"params":{"from":"Address that triggered the deposit transaction.","opaqueData":"ABI encoded deposit data to be parsed off-chain.","to":"Address that the deposit transaction is directed to.","version":"Version of this deposit transaction event."}},"WithdrawalFinalized(bytes32,bool)":{"params":{"success":"Whether the withdrawal transaction was successful.","withdrawalHash":"Hash of the withdrawal transaction."}},"WithdrawalProven(bytes32,address,address)":{"params":{"from":"Address that triggered the withdrawal transaction.","to":"Address that the withdrawal transaction is directed to.","withdrawalHash":"Hash of the withdrawal transaction."}},"WithdrawalProvenExtension1(bytes32,address)":{"params":{"proofSubmitter":"Address of the proof submitter.","withdrawalHash":"Hash of the withdrawal transaction."}}},"title":"OptimismPortal2"},"id":139}